:100000000C9471000C9499000C9499000C94990034
:100010000C9499000C9499000C9499000C949900FC
:100020000C9499000C9499000C9499000C949900EC
:100030000C9499000C9499000C94F4040C9499007D
:100040000C94A4050C9499000C9499000C949900BC
:100050000C9499000C9499000C9499000C949900BC
:100060000C9499000C949900270329032B032D036A
:100070002F0331033303DC04D704D204CD04C804B6
:10008000C304BE04B904000000080002010000031C
:100090000407000000000000000001020408102016
:1000A000408001020408102001020408102004040A
:1000B0000404040404040202020202020303030310
:1000C00003030000000023002600290000000000B8
:1000D000250028002B0000000000240027002A0033
:1000E000360311241FBECFEFD8E0DEBFCDBF11E035
:1000F000A0E0B1E0EEEAFFE002C005900D92A23C64
:10010000B107D9F721E0A2ECB1E001C01D92AA3FEE
:10011000B207E1F710E0C2EED0E004C02297FE0182
:100120000E943007C03ED107C9F70E9400070C9417
:10013000D5070C9400008F929F92AF92BF92CF92FE
:10014000DF92EF92FF926B017C010E94EE054B0162
:100150005C018AEC91E00E9454058823E9F08AEC66
:1001600091E00E94A005811117C08091C801909173
:10017000C9018630910534F401969093C9018093AA
:10018000C80104C01092C9011092C80182ED91E02B
:100190000E94330481E00CC00E94EE0568197909C1
:1001A0008A099B096C157D058E059F0590F280E0FC
:1001B000FF90EF90DF90CF90BF90AF909F908F9087
:1001C000089562E082E10E94670662E170E08AECD5
:1001D00091E00E942A056AE070E08AEC91E00E94BA
:1001E000500582ED91E00C943F0428E030E04AEBAA
:1001F00051E060E082ED91E00E9421046EEE72E039
:1002000080E090E00E949B0081110FC028E030E068
:1002100042EB51E060E082ED91E00E9421046AEF40
:1002200070E080E090E00C949B00089582ED91E0F6
:100230000E9433046091C6017091C7016830710556
:1002400034F442EB51E0461B570B9B014CC0683025
:10025000710509F04EC028E030E04AEA51E060E064
:1002600082ED91E00E94210466E970E080E090E078
:100270000E949B0081115BC028E030E042EA51E01F
:1002800060E082ED91E00E94210466E970E080E088
:1002900090E00E949B0081114AC028E030E04AEAC9
:1002A00051E060E082ED91E00E94210466E970E097
:1002B00080E090E00E949B00811139C028E030E08E
:1002C00042EA51E060E082ED91E00E94210466E99B
:1002D00070E080E090E00E949B00811128C028E03F
:1002E00030E04AEA51E060E082ED91E00E942104B2
:1002F0000FC06031710544F420E130E0261B370B5C
:1003000068504AEA51E0F0CF1092C7011092C6013E
:100310008091C6019091C70101969093C701809387
:10032000C60164E670E080E090E00C949B000895C4
:1003300082ED91E00E94330460910A0170910B01FB
:10034000409108015091090177FF05C09B01285F8A
:100350003F4F61950FC0633071052CF4460F571F56
:1003600028E030E006C02BE030E0261B370B460FBC
:10037000571F60E082ED91E00E94210480910A0104
:1003800090910B018A30910514F4019602C088EF18
:100390009FEF90930B0180930A0180910801909147
:1003A00009018759914019F48CE891E002C087E96E
:1003B00091E0909309018093080164EF71E080E07F
:1003C00090E00C949B0082ED91E00E9433046091D8
:1003D00006017091070177FF07C09B01285F3F4F1F
:1003E00061954CE751E00EC0AB0144585E4F683058
:1003F00071051CF428E030E004C020E130E0261B49
:10040000370B60E082ED91E00E94210480910601AB
:10041000909107012091040130910501820F931FF3
:1004200090930701809306010896499730F10E9446
:10043000A50720E737E140E050E00E940F07605336
:10044000784F8F4F9F4F0E949B0081111CC02091BD
:1004500004013091050188279927821B930B909303
:100460000501809304018091060190910701821B90
:10047000930B909307018093060160E570E080E0A4
:1004800090E00C949B000895CF93DF93C0E0D0E000
:100490006C2F8091C4019091C5018C0F9D1F8E35EA
:1004A000910514F08E559109FC01E25EFE4F4081EA
:1004B00050E082ED91E00E941C042196C830D105E5
:1004C00039F78091C4019091C50101968E3591054F
:1004D0002CF49093C5018093C40104C01092C5010F
:1004E0001092C40164E670E080E090E0DF91CF916B
:1004F0000C949B00CF93DF936091C2017091C30174
:10050000C8E0D0E0C61BD70B9E0146E151E082ED6A
:1005100091E00E9421042091C2013091C301AE01FB
:100520004A5E5E4F60E082ED91E00E94210480917E
:10053000C2019091C30101968830910529F09093F2
:10054000C3018093C20104C01092C3011092C20182
:1005500060E570E080E090E0DF91CF910C949B002B
:10056000CF92DF92EF92FF920F931F93CF93DF937F
:100570000E94A50722E030E040E050E00E940F0713
:100580008B010F5F1F4FC0E0D0E082E3C82ED12C5B
:10059000E12CF12CC017D10784F525E030E04CE0C8
:1005A00051E062E082ED91E00E9421040E94A507E3
:1005B000A70196010E940F076C597F4F8F4F9F4FE5
:1005C0000E949B0081112FC025E030E041E151E005
:1005D00062E082ED91E00E9421040E94A507A7013C
:1005E00096010E940F076C597F4F8F4F9F4F0E94BB
:1005F0009B00811118C02196CDCF0E94A50720EA4B
:100600003FE040E050E00E940F0768517C4F8F4F61
:100610009F4FDF91CF911F910F91FF90EF90DF904F
:10062000CF900C949B00DF91CF911F910F91FF9081
:10063000EF90DF90CF900895E091C801F091C9014B
:10064000E730F10590F4EC5CFF4F0C942E070C940E
:10065000F5000C947A020C94B0020C9416010C94E0
:1006600098010C94E3010C944402089560E070E05A
:1006700082ED91E00E94DD038AEC91E00C941E056E
:1006800090E0FC01E656FF4F2491FC01E255FF4F3C
:10069000E491F0E0EE0FFF1FE453FF4FA591B491FA
:1006A0008C91611103C02095822301C0822B8C9311
:1006B00008951F93CF93DF93182FC62F61E00E94F8
:1006C000670661E08C2F0E94670660E0812F0E9420
:1006D000A00660E08C2F0E94A00684E690E00E94B5
:1006E000FA0561E08C2F0E94A0068AE090E00E944B
:1006F000FA0560E08C2F0E946706D0E08C2F0E94E4
:10070000D606892B21F0DF3F11F0DF5FF7CF60E0E5
:10071000812F0E9467068D2FDF91CF911F91089541
:10072000FC0182E0808383E0818384E082838DE02A
:1007300083838EE084838FE0858380E1868381E1FB
:1007400087838CE080878BE081878AE0828789E0DD
:10075000838785E0848786E0858787E0868788E0D1
:100760008787808F818F138E8FEF848F0895FC0190
:1007700089E0808384E081838AE0828386E08383CA
:1007800081E184838BE0858380E186838DE08783AC
:1007900085E080878FE081878EE0828788E083878D
:1007A0009CE0948797E0958793E0968792E09787FF
:1007B000808F818F138E648F08956230710511F4DC
:1007C0000C9490036130710511F46FEF04C0633035
:1007D000710519F460E00C94B70321E0FC01238F4C
:1007E00008951F93CF93DF93EC0112E060E0812F17
:1007F0000E94670660E0812F0E94A0061F5F1231F1
:10080000A9F76CE080E10E945903813870F06FE035
:1008100089E00E945903813810F06FEF07C0CE01C4
:10082000DF91CF911F910C94900360E0CE01DF9196
:10083000CF911F910C94B703860F911DFC01408B43
:100840000895240F351FFA01641B462F4E0FE2173F
:10085000F30741F051914770DC01A40FB11D509690
:100860005C93F3CF089520E030E0FC01E20FF31F2A
:10087000108A2F5F3F4F28303105B9F708951F9335
:10088000CF93DF93EC018B8D882319F0CE010E946A
:10089000F10310E0888D181748F4FE01E10FF11DF7
:1008A00061E080810E9467061F5FF4CF10E0898DB0
:1008B000181748F4FE01E10FF11D61E080850E94E8
:1008C00067061F5FF4CFCE010E943304D093F0017E
:1008D000C093EF011A8E14BC17BCA99A80916E00C8
:1008E000826080936E00DF91CF911F9108950F93E6
:1008F0001F93CF93DF93EC0161E08C8D811160E059
:100900008A8DFE01E80FF11D80810E9440038A8DCF
:100910008F5F8A8F988D891708F01A8E8A8DFE0155
:10092000E80FF11D2089822F8A7A8695922F95757E
:10093000890F982F93738C7C86958695890F982FB5
:1009400092959F708F70980F092F000F000F000F66
:1009500080E1989F000D11241C8D1227498D50E0D5
:10096000FA013197E830F10560F5E55CFF4F0C9432
:100970002E07612F61708F850E944003612F627086
:100980008E850E944003612F64708D850E94400314
:10099000612F68708C850E944003612F60718B8588
:1009A0000E944003612F60728A850E944003612F7C
:1009B000607489850E944003612F607888850E9459
:1009C00040038A8DFE01E80FF11D6C8D80810E942D
:1009D000400387B5805C87BD87B5800F87BDDF91F9
:1009E000CF911F910F9108951F920F920FB60F9202
:1009F00011242F933F934F935F936F937F938F9324
:100A00009F93AF93BF93EF93FF938091EF019091EA
:100A1000F001009711F00E947704FF91EF91BF91D0
:100A2000AF919F918F917F916F915F914F913F9186
:100A30002F910F900FBE0F901F901895FC01108200
:100A40001182128213828AE090E095838483168259
:100A5000178208950F931F93CF93DF931F92CDB703
:100A6000DEB78C01FC016783862F69830E94D6065E
:100A7000F80116826981862F0E94D606892B19F00B
:100A800083E0F80186830E94EE05F801608371839C
:100A9000828393830F90DF91CF911F910F910895DF
:100AA000FC01758364830895FF920F931F93CF9386
:100AB000DF93EC018F810E94D606FF24F394892BEB
:100AC00009F4F12C8E81982F977F9E8386958170F3
:100AD000F81651F00E94EE05688379838A839B8320
:100AE0008E8192E0892721C00E94EE05088119813C
:100AF0002A813B81601B710B820B930B0C811D8142
:100B000020E030E0601771078207930778F08E814C
:100B100081708F1559F00E94EE05688379838A836E
:100B20009B838E8191E0892788608E838E8183FBF1
:100B3000882780F9DF91CF911F910F91FF90089541
:100B4000FC018681817008951F920F920FB60F925B
:100B500011242F933F938F939F93AF93BF938091D3
:100B6000F2019091F301A091F401B091F50130915F
:100B7000F10126E0230F2D3720F40296A11DB11DAF
:100B800005C029E8230F0396A11DB11D2093F10193
:100B90008093F2019093F301A093F401B093F501D7
:100BA0008091F6019091F701A091F801B091F901BF
:100BB0000196A11DB11D8093F6019093F701A093BA
:100BC000F801B093F901BF91AF919F918F913F913F
:100BD0002F910F900FBE0F901F9018952FB7F8947C
:100BE0006091F2017091F3018091F4019091F5010F
:100BF0002FBF08958330910528F0880F991F04971F
:100C00000197F1F70895789484B5826084BD84B526
:100C1000816084BD85B5826085BD85B5816085BDF7
:100C2000EEE6F0E0808181608083E1E8F0E0108210
:100C3000808182608083808181608083E0E8F0E051
:100C4000808181608083E1EBF0E08081846080833B
:100C5000E0EBF0E0808181608083EAE7F0E0808172
:100C60008460808380818260808380818E7F8083A6
:100C70008081806880831092C1000895833081F064
:100C800028F4813099F08230A1F008958730A9F0DE
:100C90008830B9F08430D1F4809180008F7D03C01A
:100CA000809180008F7780938000089584B58F773E
:100CB00002C084B58F7D84BD08958091B0008F7788
:100CC00003C08091B0008F7D8093B0000895CF93D2
:100CD000DF9390E0FC01E656FF4F2491FC01E255C2
:100CE000FF4F8491882349F190E0880F991FFC0100
:100CF000EA52FF4FA591B49184539F4FFC01C591D7
:100D0000D4919FB7611108C0F8948C9120958223EB
:100D10008C93888182230AC0623051F4F8948C91BC
:100D2000322F309583238C938881822B888304C053
:100D3000F8948C91822B8C939FBFDF91CF91089573
:100D40000F931F93CF93DF931F92CDB7DEB7282F5A
:100D500030E0F901EA57FF4F8491F901E656FF4F61
:100D60001491F901E255FF4F04910023C9F0882343
:100D700021F069830E943E066981E02FF0E0EE0FCA
:100D8000FF1FE453FF4FA591B4919FB7F8948C9146
:100D9000611103C01095812301C0812B8C939FBFEB
:100DA0000F90DF91CF911F910F910895CF93DF9313
:100DB000282F30E0F901EA57FF4F8491F901E656F8
:100DC000FF4FD491F901E255FF4FC491CC2391F02C
:100DD00081110E943E06EC2FF0E0EE0FFF1FEE5354
:100DE000FF4FA591B4912C912D2381E090E021F447
:100DF00080E002C080E090E0DF91CF9108950895F7
:100E00000E9403060E94FF060E94E100C0E0D0E0BD
:100E10000E941C032097E1F30E940000F9CF052EE9
:100E200097FB1EF400940E94260757FD07D00E94EE
:100E3000340707FC03D04EF40C94260750954095D8
:100E4000309521953F4F4F4F5F4F08959095809576
:100E5000709561957F4F8F4F9F4F0895EE0FFF1F45
:100E60000590F491E02D0994A1E21A2EAA1BBB1B58
:100E7000FD010DC0AA1FBB1FEE1FFF1FA217B30766
:100E8000E407F50720F0A21BB30BE40BF50B661F7C
:100E9000771F881F991F1A9469F760957095809540
:100EA00090959B01AC01BD01CF0108958F929F9257
:100EB000AF92BF92CF92DF92EF92FF92CF93DF93E8
:100EC000EC01688179818A819B81611571058105B9
:100ED000910521F464E279ED8BE597E02DE133EFA4
:100EE00041E050E00E940F0749015A019B01AC010B
:100EF000A7EAB1E40E94B3076B017C01ACEEB4EF4A
:100F0000A50194010E94C107C60ED71EE81EF91E56
:100F1000F7FE06C081E0C81AD108E10880E8F80AA7
:100F2000C882D982EA82FB82C701B6019F77DF912E
:100F3000CF91FF90EF90DF90CF90BF90AF909F90B8
:100F40008F9008950E945607089580E091E00E94D6
:100F50005607089560930001709301018093020188
:100F60009093030108950E94C607A59F900DB49F1A
:100F7000900DA49F800D911D11240895B7FF0C942E
:100F8000B3070E94B307821B930B0895A29FB00181
:100F9000B39FC001A39F700D811D1124911DB29FAD
:0E0FA000700D811D1124911D0895F894FFCF4E
:100FAE00010000000100F9FF9701F8FF0000003C6E
:100FBE00004200003C00300C02020C304040320F68
:100FCE000222507E111040201826404020000202BE
:100FDE003A46420101000A3F4A4A4A200000047E76
:100FEE000104037E161400084848300002120F0A4E
:100FFE004A483000081E48300008054544380000B5
:10100E0020400000241C07443C020C000A3F4A4AC0
:10101E004A2000006060000000000000040C1E3733
:10102E003E7C747E7E747C3E371E0C04781DBE6C36
:10103E003C3C3C6CBE1D780E18BE6D3D3C3D6DBEFD
:10104E00180EF8BC157E7E15BCF8FC8E1B2E2E1BC2
:10105E008EFC0000247E7E3C18000066FFFFFF7EA3
:02106E003C182C
:00000001FF
